{
  "contractName": "Gestion",
  "abi": [
    {
      "anonymous": false,
      "inputs": [
        {
          "indexed": false,
          "name": "mysqlcustom",
          "type": "string"
        }
      ],
      "name": "customEvent",
      "type": "event",
      "signature": "0x818d2411fb91789e92f56372e7b3507b252d906389d61065b79c41fbb3df6169"
    },
    {
      "anonymous": false,
      "inputs": [
        {
          "indexed": false,
          "name": "mysqlresult",
          "type": "string"
        }
      ],
      "name": "customEventResult",
      "type": "event",
      "signature": "0x7e1b9889c040dba8bfc707a45ae7682dc815451a3c9e7c5bac0eb5f86cc885d3"
    },
    {
      "constant": false,
      "inputs": [
        {
          "name": "identificador",
          "type": "int256"
        }
      ],
      "name": "inicializar",
      "outputs": [],
      "payable": false,
      "stateMutability": "nonpayable",
      "type": "function",
      "signature": "0xfa12f3d8"
    },
    {
      "constant": false,
      "inputs": [
        {
          "name": "input",
          "type": "string"
        },
        {
          "name": "id",
          "type": "int256"
        }
      ],
      "name": "setCustom",
      "outputs": [],
      "payable": false,
      "stateMutability": "nonpayable",
      "type": "function",
      "signature": "0xbb62f4a7"
    },
    {
      "constant": true,
      "inputs": [
        {
          "name": "id",
          "type": "int256"
        }
      ],
      "name": "getCustom",
      "outputs": [
        {
          "name": "",
          "type": "string"
        }
      ],
      "payable": false,
      "stateMutability": "view",
      "type": "function",
      "signature": "0x648bf55c"
    },
    {
      "constant": false,
      "inputs": [
        {
          "name": "input",
          "type": "string"
        },
        {
          "name": "id",
          "type": "int256"
        }
      ],
      "name": "setResult",
      "outputs": [],
      "payable": false,
      "stateMutability": "nonpayable",
      "type": "function",
      "signature": "0x583da5af"
    },
    {
      "constant": true,
      "inputs": [
        {
          "name": "id",
          "type": "int256"
        }
      ],
      "name": "getResult",
      "outputs": [
        {
          "name": "",
          "type": "string"
        }
      ],
      "payable": false,
      "stateMutability": "view",
      "type": "function",
      "signature": "0x8a004e59"
    },
    {
      "constant": false,
      "inputs": [
        {
          "name": "input",
          "type": "string"
        },
        {
          "name": "id",
          "type": "int256"
        }
      ],
      "name": "setCompare",
      "outputs": [],
      "payable": false,
      "stateMutability": "nonpayable",
      "type": "function",
      "signature": "0x6345d033"
    },
    {
      "constant": true,
      "inputs": [
        {
          "name": "id",
          "type": "int256"
        }
      ],
      "name": "getCompare",
      "outputs": [
        {
          "name": "",
          "type": "string"
        }
      ],
      "payable": false,
      "stateMutability": "view",
      "type": "function",
      "signature": "0xa2097f04"
    },
    {
      "constant": true,
      "inputs": [
        {
          "name": "id",
          "type": "int256"
        }
      ],
      "name": "getBoolComparation",
      "outputs": [
        {
          "name": "",
          "type": "string"
        }
      ],
      "payable": false,
      "stateMutability": "view",
      "type": "function",
      "signature": "0x81eed6dd"
    },
    {
      "constant": false,
      "inputs": [
        {
          "name": "id",
          "type": "int256"
        }
      ],
      "name": "compareHashes",
      "outputs": [
        {
          "name": "",
          "type": "string"
        }
      ],
      "payable": false,
      "stateMutability": "nonpayable",
      "type": "function",
      "signature": "0xf33e6c94"
    },
    {
      "constant": false,
      "inputs": [
        {
          "name": "id",
          "type": "int256"
        }
      ],
      "name": "limpiarId",
      "outputs": [],
      "payable": false,
      "stateMutability": "nonpayable",
      "type": "function",
      "signature": "0x0209acad"
    },
    {
      "constant": false,
      "inputs": [
        {
          "name": "input",
          "type": "string"
        }
      ],
      "name": "CreateCustomEvent",
      "outputs": [],
      "payable": false,
      "stateMutability": "nonpayable",
      "type": "function",
      "signature": "0xf73361a4"
    },
    {
      "constant": false,
      "inputs": [
        {
          "name": "input",
          "type": "string"
        }
      ],
      "name": "CreateCustomEventResult",
      "outputs": [],
      "payable": false,
      "stateMutability": "nonpayable",
      "type": "function",
      "signature": "0xf1fb878b"
    }
  ],
  "bytecode": "0x608060405234801561001057600080fd5b50611318806100206000396000f3fe6080604052600436106100ba576000357c0100000000000000000000000000000000000000000000000000000000900463ffffffff1680630209acad146100bf578063583da5af146100fa5780636345d033146101cc578063648bf55c1461029e57806381eed6dd146103525780638a004e5914610406578063a2097f04146104ba578063bb62f4a71461056e578063f1fb878b14610640578063f33e6c9414610708578063f73361a4146107bc578063fa12f3d814610884575b600080fd5b3480156100cb57600080fd5b506100f8600480360360208110156100e257600080fd5b81019080803590602001909291905050506108bf565b005b34801561010657600080fd5b506101ca6004803603604081101561011d57600080fd5b810190808035906020019064010000000081111561013a57600080fd5b82018360208201111561014c57600080fd5b8035906020019184600183028401116401000000008311171561016e57600080fd5b91908080601f016020809104026020016040519081016040528093929190818152602001838380828437600081840152601f19601f820116905080830192505050505050509192919290803590602001909291905050506109aa565b005b3480156101d857600080fd5b5061029c600480360360408110156101ef57600080fd5b810190808035906020019064010000000081111561020c57600080fd5b82018360208201111561021e57600080fd5b8035906020019184600183028401116401000000008311171561024057600080fd5b91908080601f016020809104026020016040519081016040528093929190818152602001838380828437600081840152601f19601f820116905080830192505050505050509192919290803590602001909291905050506109d8565b005b3480156102aa57600080fd5b506102d7600480360360208110156102c157600080fd5b8101908080359060200190929190505050610a06565b6040518080602001828103825283818151815260200191508051906020019080838360005b838110156103175780820151818401526020810190506102fc565b50505050905090810190601f1680156103445780820380516001836020036101000a031916815260200191505b509250505060405180910390f35b34801561035e57600080fd5b5061038b6004803603602081101561037557600080fd5b8101908080359060200190929190505050610abd565b6040518080602001828103825283818151815260200191508051906020019080838360005b838110156103cb5780820151818401526020810190506103b0565b50505050905090810190601f1680156103f85780820380516001836020036101000a031916815260200191505b509250505060405180910390f35b34801561041257600080fd5b5061043f6004803603602081101561042957600080fd5b8101908080359060200190929190505050610b74565b6040518080602001828103825283818151815260200191508051906020019080838360005b8381101561047f578082015181840152602081019050610464565b50505050905090810190601f1680156104ac5780820380516001836020036101000a031916815260200191505b509250505060405180910390f35b3480156104c657600080fd5b506104f3600480360360208110156104dd57600080fd5b8101908080359060200190929190505050610c2b565b6040518080602001828103825283818151815260200191508051906020019080838360005b83811015610533578082015181840152602081019050610518565b50505050905090810190601f1680156105605780820380516001836020036101000a031916815260200191505b509250505060405180910390f35b34801561057a57600080fd5b5061063e6004803603604081101561059157600080fd5b81019080803590602001906401000000008111156105ae57600080fd5b8201836020820111156105c057600080fd5b803590602001918460018302840111640100000000831117156105e257600080fd5b91908080601f016020809104026020016040519081016040528093929190818152602001838380828437600081840152601f19601f82011690508083019250505050505050919291929080359060200190929190505050610ce2565b005b34801561064c57600080fd5b506107066004803603602081101561066357600080fd5b810190808035906020019064010000000081111561068057600080fd5b82018360208201111561069257600080fd5b803590602001918460018302840111640100000000831117156106b457600080fd5b91908080601f016020809104026020016040519081016040528093929190818152602001838380828437600081840152601f19601f820116905080830192505050505050509192919290505050610d10565b005b34801561071457600080fd5b506107416004803603602081101561072b57600080fd5b8101908080359060200190929190505050610daf565b6040518080602001828103825283818151815260200191508051906020019080838360005b83811015610781578082015181840152602081019050610766565b50505050905090810190601f1680156107ae5780820380516001836020036101000a031916815260200191505b509250505060405180910390f35b3480156107c857600080fd5b50610882600480360360208110156107df57600080fd5b81019080803590602001906401000000008111156107fc57600080fd5b82018360208201111561080e57600080fd5b8035906020019184600183028401116401000000008311171561083057600080fd5b91908080601f016020809104026020016040519081016040528093929190818152602001838380828437600081840152601f19601f82011690508083019250505050505050919291929050505061102a565b005b34801561089057600080fd5b506108bd600480360360208110156108a757600080fd5b81019080803590602001909291905050506110c9565b005b602060405190810160405280600081525060008083815260200190815260200160002060010190805190602001906108f89291906111c7565b50602060405190810160405280600081525060008083815260200190815260200160002060000190805190602001906109329291906111c7565b506020604051908101604052806000815250600080838152602001908152602001600020600201908051906020019061096c9291906111c7565b50602060405190810160405280600081525060008083815260200190815260200160002060030190805190602001906109a69291906111c7565b5050565b8160008083815260200190815260200160002060000190805190602001906109d39291906111c7565b505050565b816000808381526020019081526020016000206002019080519060200190610a019291906111c7565b505050565b60606000808381526020019081526020016000206001018054600181600116156101000203166002900480601f016020809104026020016040519081016040528092919081815260200182805460018160011615610100020316600290048015610ab15780601f10610a8657610100808354040283529160200191610ab1565b820191906000526020600020905b815481529060010190602001808311610a9457829003601f168201915b50505050509050919050565b60606000808381526020019081526020016000206003018054600181600116156101000203166002900480601f016020809104026020016040519081016040528092919081815260200182805460018160011615610100020316600290048015610b685780601f10610b3d57610100808354040283529160200191610b68565b820191906000526020600020905b815481529060010190602001808311610b4b57829003601f168201915b50505050509050919050565b60606000808381526020019081526020016000206000018054600181600116156101000203166002900480601f016020809104026020016040519081016040528092919081815260200182805460018160011615610100020316600290048015610c1f5780601f10610bf457610100808354040283529160200191610c1f565b820191906000526020600020905b815481529060010190602001808311610c0257829003601f168201915b50505050509050919050565b60606000808381526020019081526020016000206002018054600181600116156101000203166002900480601f016020809104026020016040519081016040528092919081815260200182805460018160011615610100020316600290048015610cd65780601f10610cab57610100808354040283529160200191610cd6565b820191906000526020600020905b815481529060010190602001808311610cb957829003601f168201915b50505050509050919050565b816000808381526020019081526020016000206001019080519060200190610d0b9291906111c7565b505050565b7f7e1b9889c040dba8bfc707a45ae7682dc815451a3c9e7c5bac0eb5f86cc885d3816040518080602001828103825283818151815260200191508051906020019080838360005b83811015610d72578082015181840152602081019050610d57565b50505050905090810190601f168015610d9f5780820380516001836020036101000a031916815260200191505b509250505060405180910390a150565b60606000808381526020019081526020016000206002016040518082805460018160011615610100020316600290048015610e215780601f10610dff576101008083540402835291820191610e21565b820191906000526020600020905b815481529060010190602001808311610e0d575b505091505060405180910390206000808481526020019081526020016000206000016040518082805460018160011615610100020316600290048015610e9e5780601f10610e7c576101008083540402835291820191610e9e565b820191906000526020600020905b815481529060010190602001808311610e8a575b505091505060405180910390201415610f15576040805190810160405280600481526020017f74727565000000000000000000000000000000000000000000000000000000008152506000808481526020019081526020016000206003019080519060200190610f0f9291906111c7565b50610f75565b6040805190810160405280600581526020017f66616c73650000000000000000000000000000000000000000000000000000008152506000808481526020019081526020016000206003019080519060200190610f739291906111c7565b505b6000808381526020019081526020016000206003018054600181600116156101000203166002900480601f01602080910402602001604051908101604052809291908181526020018280546001816001161561010002031660029004801561101e5780601f10610ff35761010080835404028352916020019161101e565b820191906000526020600020905b81548152906001019060200180831161100157829003601f168201915b50505050509050919050565b7f818d2411fb91789e92f56372e7b3507b252d906389d61065b79c41fbb3df6169816040518080602001828103825283818151815260200191508051906020019080838360005b8381101561108c578082015181840152602081019050611071565b50505050905090810190601f1680156110b95780820380516001836020036101000a031916815260200191505b509250505060405180910390a150565b60a0604051908101604052806020604051908101604052806000815250815260200160206040519081016040528060008152508152602001602060405190810160405280600081525081526020016020604051908101604052806000815250815260200182815250600080838152602001908152602001600020600082015181600001908051906020019061115f929190611247565b50602082015181600101908051906020019061117c929190611247565b506040820151816002019080519060200190611199929190611247565b5060608201518160030190805190602001906111b6929190611247565b506080820151816004015590505050565b828054600181600116156101000203166002900490600052602060002090601f016020900481019282601f1061120857805160ff1916838001178555611236565b82800160010185558215611236579182015b8281111561123557825182559160200191906001019061121a565b5b50905061124391906112c7565b5090565b828054600181600116156101000203166002900490600052602060002090601f016020900481019282601f1061128857805160ff19168380011785556112b6565b828001600101855582156112b6579182015b828111156112b557825182559160200191906001019061129a565b5b5090506112c391906112c7565b5090565b6112e991905b808211156112e55760008160009055506001016112cd565b5090565b9056fea165627a7a72305820ea844b29806f41268095f19615f52067e7c6c9ff15b11593ddfb7f6ae7343e220029",
  "source": "pragma solidity ^0.5.0;\n///////////////////////////////////////////////////////////////////////////////////////////////////////////////////////////////////////////////\n/**********************************************************STORE DATA AND EMIT EVENTS*********************************************************/\n\ncontract Gestion {\n\n\n\tstruct datosStruct{\n\t\tstring result;\n\t\tstring custom;\n\t\tstring compare;\n\t\tstring boolComparation;\n\t\tint256 id;\n\t}\n\tmapping (int256 => datosStruct) mappingUsuarios;\n\n\n\n\t\n    event customEvent (string mysqlcustom);\n    // Event used to send a MySQL Query. The input is the query input and id. It allows to record the query\n\t\n\tevent customEventResult(string mysqlresult);\n\t// Event used to send a result. The input is the result and id. \n\n\tfunction inicializar (int256 identificador) public{\n\t\t\tmappingUsuarios[identificador]=datosStruct(\"\",\"\",\"\",\"\",identificador);\n\t}\n\n\tfunction setCustom (string memory input, int256  id) public {\n\t\tmappingUsuarios[id].custom=input;\n\t}\n\n\t/*\n\tFunction setCustom : \n\n\t\t- input: string, int\n\n\t\t- output: none\n\n\tChanges the input of the query.The new input replaces the old one, and is stored in the Blockchain.\n\tModifies the Blockchain, consumes Ether\n\n\t*/\n\n\n\tfunction getCustom (int256  id) public view returns(string memory)  {\n\t\treturn mappingUsuarios[id].custom;\n\t}\n\t\n\n\t/*\n\tFunction getCustom : \n\n\t\t- input: int\n\n\t\t- output: string\n\n\tReturns the input of the query, stored in the blockchain.\n\tOnly gives the state of a variable, does not modify the blockchain.\n\tDoes not consume Ether\n\n\t*/\n\n\n\tfunction setResult(string memory input, int256 id) public {\n\t\tmappingUsuarios[id].result=input;\n\t}\n\n\t/*\n\tFunction setResult : \n\n\t\t- input: string, int\n\n\t\t- output: none\n\n\tStores the result of the last request in the variable result.\n\tModifies the Blockchain, consumes Ether\n\n\n\t*/\n\t\n\n\tfunction getResult(int256 id) public view returns(string memory)  {\n\t\treturn mappingUsuarios[id].result;\n\t}\n\t\n\t/*\n\tFunction getResult : \n\n\t\t- input: int\n\n\t\t- output: string\n\n\tReturns the result of the last query, stored in the blockchain in the variable result.\n\tOnly gives the state of a variable, does not modify the blockchain.\n\tDoes not consume Ether\n\n\t*/\n\n\t\t\n\t\n\tfunction setCompare (string memory input, int256 id) public {\n\t\tmappingUsuarios[id].compare=input;\n\t}\n\n\t/*\n\tFunction setCompare : \n\n\t\t- input: string, int\n\n\t\t- output: none\n\n\tChanges the element to compare.The new input replaces the old one, and is stored in the Blockchain.\n\tModifies the Blockchain, consumes Ether\n\n\t*/\n\n\n\tfunction getCompare (int256 id) public view returns(string memory)  {\n\t\treturn mappingUsuarios[id].compare;\n\t}\n\t\n\n\t/*\n\tFunction getCompare : \n\n\t\t- input: int\n\n\t\t- output: string\n\n\tReturns the element to compare, stored in the blockchain.\n\tOnly gives the state of a variable, does not modify the blockchain.\n\tDoes not consume Ether\n\n\t*/\n\n\n\n\t\n\n\n\tfunction getBoolComparation (int256 id) public view returns(string memory)  {\n\t\t\treturn mappingUsuarios[id].boolComparation;\n\t}\n\t/*\n\tFunction getBoolComparation : \n\n\t\t- input: int\n\n\t\t- output: string\n\n\tReturns the result of the comparation, stored in the blockchain.\n\tOnly gives the state of a variable, does not modify the blockchain.\n\tDoes not consume Ether\n\n\t*/\n\n\n\n\tfunction compareHashes (int256 id) public  returns(string memory) {\n\t\tif(keccak256(bytes(mappingUsuarios[id].result)) == keccak256(bytes(mappingUsuarios[id].compare))){\n\t\t\tmappingUsuarios[id].boolComparation=\"true\";\n\t\t}else{\n\t\t\tmappingUsuarios[id].boolComparation=\"false\";\n\t\t}\n\t\treturn mappingUsuarios[id].boolComparation;\n\n\t}\n\n\t/*\n\tFunction compareHashes : \n\n\t\t- input: int\n\n\t\t- output: string\n\n\tReturns the result of the comparation and changes the result of it.\n\tThe new result replaces the old one, and is stored in the Blockchain.\n\tModifies the Blockchain, consumes Ether\n\n\t*/\n\n\n\n\n\n\tfunction limpiarId (int256 id) public  {\n\t\t\tmappingUsuarios[id].custom=\"\";\n\t\t\tmappingUsuarios[id].result=\"\";\n\t\t\tmappingUsuarios[id].compare=\"\";\t\t\t\n\t\t\tmappingUsuarios[id].boolComparation=\"\";\n\t}\n\t/*\n\tFunction limpiarId : \n\n\t\t- input: int\n\n\t\t- output: none\n\n\tClean the variables used replacing old values.\n\tModifies the Blockchain, consumes Ether\n\n\t*/\n\n\n\n\n\n\tfunction CreateCustomEvent(string memory input) public {\n\t\temit customEvent(input);\n\t}\n\n\t/*\n\tFunction CreateCustomEvent: \n\n\t\t- input: string\n\n\t\t- output: none\n\n\tEmit a mysqlevent. The input of this event is the variable input (which is also the input of the query and the id).\n\tThe event is written in a log in the blockchain when it is emitted.\n\t*/\n\n\tfunction CreateCustomEventResult(string memory input) public{\n\t\temit customEventResult(input);\n\t}\n\t/*\n\tFunction CreateCustomEventResult: \n\n\t\t- input: string\n\n\t\t- output: none\n\n\tEmit a mysqleventresult. The input of this event is the variable input (which is the response of the DDBB and the id).\n\tThe event is written in a log in the blockchain when it is emitted.\n\t*/\n}\n",
  "sourcePath": "/opt/lampp/htdocs/test_v2/BlockchainWebDB-master/WebServer/contracts/Gestion.sol",
  "compiler": {
    "name": "solc",
    "version": "0.5.0+commit.1d4f565a.Emscripten.clang"
  },
  "schemaVersion": "3.0.2",
  "updatedAt": "2019-04-05T13:43:58.780Z",
  "devdoc": {
    "methods": {}
  },
  "userdoc": {
    "methods": {},
    "notice": "********************************************************STORE DATA AND EMIT EVENTS********************************************************"
  }
}