{
  "contractName": "Gestion",
  "abi": [
    {
      "anonymous": false,
      "inputs": [
        {
          "indexed": false,
          "name": "mysqlcustom",
          "type": "string"
        }
      ],
      "name": "customEvent",
      "type": "event",
      "signature": "0x818d2411fb91789e92f56372e7b3507b252d906389d61065b79c41fbb3df6169"
    },
    {
      "anonymous": false,
      "inputs": [
        {
          "indexed": false,
          "name": "mysqlresult",
          "type": "string"
        }
      ],
      "name": "customEventResult",
      "type": "event",
      "signature": "0x7e1b9889c040dba8bfc707a45ae7682dc815451a3c9e7c5bac0eb5f86cc885d3"
    },
    {
      "constant": false,
      "inputs": [
        {
          "name": "input",
          "type": "string"
        }
      ],
      "name": "setCustom",
      "outputs": [],
      "payable": false,
      "stateMutability": "nonpayable",
      "type": "function",
      "signature": "0xef8adfc3"
    },
    {
      "constant": true,
      "inputs": [],
      "name": "getCustom",
      "outputs": [
        {
          "name": "",
          "type": "string"
        }
      ],
      "payable": false,
      "stateMutability": "view",
      "type": "function",
      "signature": "0xd01ae036"
    },
    {
      "constant": false,
      "inputs": [
        {
          "name": "input",
          "type": "string"
        }
      ],
      "name": "setResult",
      "outputs": [],
      "payable": false,
      "stateMutability": "nonpayable",
      "type": "function",
      "signature": "0x88e3cfda"
    },
    {
      "constant": true,
      "inputs": [],
      "name": "getResult",
      "outputs": [
        {
          "name": "",
          "type": "string"
        }
      ],
      "payable": false,
      "stateMutability": "view",
      "type": "function",
      "signature": "0xde292789"
    },
    {
      "constant": false,
      "inputs": [
        {
          "name": "input",
          "type": "string"
        }
      ],
      "name": "setCompare",
      "outputs": [],
      "payable": false,
      "stateMutability": "nonpayable",
      "type": "function",
      "signature": "0xdae64498"
    },
    {
      "constant": true,
      "inputs": [],
      "name": "getCompare",
      "outputs": [
        {
          "name": "",
          "type": "string"
        }
      ],
      "payable": false,
      "stateMutability": "view",
      "type": "function",
      "signature": "0x37881299"
    },
    {
      "constant": true,
      "inputs": [],
      "name": "getBoolComparation",
      "outputs": [
        {
          "name": "",
          "type": "string"
        }
      ],
      "payable": false,
      "stateMutability": "view",
      "type": "function",
      "signature": "0xb0234cdc"
    },
    {
      "constant": false,
      "inputs": [],
      "name": "compareHashes",
      "outputs": [
        {
          "name": "",
          "type": "string"
        }
      ],
      "payable": false,
      "stateMutability": "nonpayable",
      "type": "function",
      "signature": "0xe540f7ee"
    },
    {
      "constant": false,
      "inputs": [
        {
          "name": "input",
          "type": "string"
        }
      ],
      "name": "CreateCustomEvent",
      "outputs": [],
      "payable": false,
      "stateMutability": "nonpayable",
      "type": "function",
      "signature": "0xf73361a4"
    },
    {
      "constant": false,
      "inputs": [
        {
          "name": "input",
          "type": "string"
        }
      ],
      "name": "CreateCustomEventResult",
      "outputs": [],
      "payable": false,
      "stateMutability": "nonpayable",
      "type": "function",
      "signature": "0xf1fb878b"
    }
  ],
  "bytecode": "0x60806040526040805190810160405280600881526020017f4e6f205175657279000000000000000000000000000000000000000000000000815250600090805190602001906200005192919062000150565b506040805190810160405280600a81526020017f4e6f207265717565737400000000000000000000000000000000000000000000815250600190805190602001906200009f92919062000150565b506040805190810160405280600a81526020017f4e6f20636f6d706172650000000000000000000000000000000000000000000081525060029080519060200190620000ed92919062000150565b506040805190810160405280600581526020017f66616c7365000000000000000000000000000000000000000000000000000000815250600390805190602001906200013b92919062000150565b503480156200014957600080fd5b50620001ff565b828054600181600116156101000203166002900490600052602060002090601f016020900481019282601f106200019357805160ff1916838001178555620001c4565b82800160010185558215620001c4579182015b82811115620001c3578251825591602001919060010190620001a6565b5b509050620001d39190620001d7565b5090565b620001fc91905b80821115620001f8576000816000905550600101620001de565b5090565b90565b610e60806200020f6000396000f3fe6080604052600436106100a4576000357c0100000000000000000000000000000000000000000000000000000000900463ffffffff16806337881299146100a957806388e3cfda14610139578063b0234cdc14610201578063d01ae03614610291578063dae6449814610321578063de292789146103e9578063e540f7ee14610479578063ef8adfc314610509578063f1fb878b146105d1578063f73361a414610699575b600080fd5b3480156100b557600080fd5b506100be610761565b6040518080602001828103825283818151815260200191508051906020019080838360005b838110156100fe5780820151818401526020810190506100e3565b50505050905090810190601f16801561012b5780820380516001836020036101000a031916815260200191505b509250505060405180910390f35b34801561014557600080fd5b506101ff6004803603602081101561015c57600080fd5b810190808035906020019064010000000081111561017957600080fd5b82018360208201111561018b57600080fd5b803590602001918460018302840111640100000000831117156101ad57600080fd5b91908080601f016020809104026020016040519081016040528093929190818152602001838380828437600081840152601f19601f820116905080830192505050505050509192919290505050610803565b005b34801561020d57600080fd5b5061021661081d565b6040518080602001828103825283818151815260200191508051906020019080838360005b8381101561025657808201518184015260208101905061023b565b50505050905090810190601f1680156102835780820380516001836020036101000a031916815260200191505b509250505060405180910390f35b34801561029d57600080fd5b506102a66108bf565b6040518080602001828103825283818151815260200191508051906020019080838360005b838110156102e65780820151818401526020810190506102cb565b50505050905090810190601f1680156103135780820380516001836020036101000a031916815260200191505b509250505060405180910390f35b34801561032d57600080fd5b506103e76004803603602081101561034457600080fd5b810190808035906020019064010000000081111561036157600080fd5b82018360208201111561037357600080fd5b8035906020019184600183028401116401000000008311171561039557600080fd5b91908080601f016020809104026020016040519081016040528093929190818152602001838380828437600081840152601f19601f820116905080830192505050505050509192919290505050610961565b005b3480156103f557600080fd5b506103fe61097b565b6040518080602001828103825283818151815260200191508051906020019080838360005b8381101561043e578082015181840152602081019050610423565b50505050905090810190601f16801561046b5780820380516001836020036101000a031916815260200191505b509250505060405180910390f35b34801561048557600080fd5b5061048e610a1d565b6040518080602001828103825283818151815260200191508051906020019080838360005b838110156104ce5780820151818401526020810190506104b3565b50505050905090810190601f1680156104fb5780820380516001836020036101000a031916815260200191505b509250505060405180910390f35b34801561051557600080fd5b506105cf6004803603602081101561052c57600080fd5b810190808035906020019064010000000081111561054957600080fd5b82018360208201111561055b57600080fd5b8035906020019184600183028401116401000000008311171561057d57600080fd5b91908080601f016020809104026020016040519081016040528093929190818152602001838380828437600081840152601f19601f820116905080830192505050505050509192919290505050610c37565b005b3480156105dd57600080fd5b50610697600480360360208110156105f457600080fd5b810190808035906020019064010000000081111561061157600080fd5b82018360208201111561062357600080fd5b8035906020019184600183028401116401000000008311171561064557600080fd5b91908080601f016020809104026020016040519081016040528093929190818152602001838380828437600081840152601f19601f820116905080830192505050505050509192919290505050610c51565b005b3480156106a557600080fd5b5061075f600480360360208110156106bc57600080fd5b81019080803590602001906401000000008111156106d957600080fd5b8201836020820111156106eb57600080fd5b8035906020019184600183028401116401000000008311171561070d57600080fd5b91908080601f016020809104026020016040519081016040528093929190818152602001838380828437600081840152601f19601f820116905080830192505050505050509192919290505050610cf0565b005b606060028054600181600116156101000203166002900480601f0160208091040260200160405190810160405280929190818152602001828054600181600116156101000203166002900480156107f95780601f106107ce576101008083540402835291602001916107f9565b820191906000526020600020905b8154815290600101906020018083116107dc57829003601f168201915b5050505050905090565b8060009080519060200190610819929190610d8f565b5050565b606060038054600181600116156101000203166002900480601f0160208091040260200160405190810160405280929190818152602001828054600181600116156101000203166002900480156108b55780601f1061088a576101008083540402835291602001916108b5565b820191906000526020600020905b81548152906001019060200180831161089857829003601f168201915b5050505050905090565b606060018054600181600116156101000203166002900480601f0160208091040260200160405190810160405280929190818152602001828054600181600116156101000203166002900480156109575780601f1061092c57610100808354040283529160200191610957565b820191906000526020600020905b81548152906001019060200180831161093a57829003601f168201915b5050505050905090565b8060029080519060200190610977929190610d8f565b5050565b606060008054600181600116156101000203166002900480601f016020809104026020016040519081016040528092919081815260200182805460018160011615610100020316600290048015610a135780601f106109e857610100808354040283529160200191610a13565b820191906000526020600020905b8154815290600101906020018083116109f657829003601f168201915b5050505050905090565b606060026040518082805460018160011615610100020316600290048015610a7c5780601f10610a5a576101008083540402835291820191610a7c565b820191906000526020600020905b815481529060010190602001808311610a68575b5050915050604051809103902060006040518082805460018160011615610100020316600290048015610ae65780601f10610ac4576101008083540402835291820191610ae6565b820191906000526020600020905b815481529060010190602001808311610ad2575b505091505060405180910390201415610b4a576040805190810160405280600481526020017f747275650000000000000000000000000000000000000000000000000000000081525060039080519060200190610b44929190610d8f565b50610b97565b6040805190810160405280600581526020017f66616c736500000000000000000000000000000000000000000000000000000081525060039080519060200190610b95929190610d8f565b505b60038054600181600116156101000203166002900480601f016020809104026020016040519081016040528092919081815260200182805460018160011615610100020316600290048015610c2d5780601f10610c0257610100808354040283529160200191610c2d565b820191906000526020600020905b815481529060010190602001808311610c1057829003601f168201915b5050505050905090565b8060019080519060200190610c4d929190610d8f565b5050565b7f7e1b9889c040dba8bfc707a45ae7682dc815451a3c9e7c5bac0eb5f86cc885d3816040518080602001828103825283818151815260200191508051906020019080838360005b83811015610cb3578082015181840152602081019050610c98565b50505050905090810190601f168015610ce05780820380516001836020036101000a031916815260200191505b509250505060405180910390a150565b7f818d2411fb91789e92f56372e7b3507b252d906389d61065b79c41fbb3df6169816040518080602001828103825283818151815260200191508051906020019080838360005b83811015610d52578082015181840152602081019050610d37565b50505050905090810190601f168015610d7f5780820380516001836020036101000a031916815260200191505b509250505060405180910390a150565b828054600181600116156101000203166002900490600052602060002090601f016020900481019282601f10610dd057805160ff1916838001178555610dfe565b82800160010185558215610dfe579182015b82811115610dfd578251825591602001919060010190610de2565b5b509050610e0b9190610e0f565b5090565b610e3191905b80821115610e2d576000816000905550600101610e15565b5090565b9056fea165627a7a7230582031af189d01af720327280f6fb330628131020df3a75becfbe8d5c84969fa2e5a0029",
  "source": "pragma solidity ^0.5.0;\n///////////////////////////////////////////////////////////////////////////////////////////////////////////////////////////////////////////////\n/**********************************************************STORE DATA AND EMIT EVENTS*********************************************************/\n\ncontract Gestion {\n\n\tstring result = \"No Query\"; // The result of the query is stored in this variable\n\n\tstring custom = \"No request\"; // We will store the complete custom request in this variable\n\n\tstring compare = \"No compare\";\n\n\tstring boolComparation= \"false\";\n\t//https://ethereum.stackexchange.com/questions/6121/parse-json-in-solidity\n\t\n    event customEvent (string mysqlcustom);\n    // Event used to send a MySQL Query. The input is the query input. It allows to record the query\n\t\n\tevent customEventResult(string mysqlresult);\n\t\n\tfunction setCustom (string memory input) public {\n\t\tcustom = input;\n\t}\n\n\t/*\n\tFunction setCustom : \n\n\t\t- input: string\n\n\t\t- output: none\n\n\tChanges the input of the query.The new input replaces the old one, and is stored in the Blockchain.\n\tModifies the Blockchain, consumes Ether\n\n\t*/\n\n\n\tfunction getCustom () public view returns(string memory)  {\n\t\treturn custom;\n\t}\n\t\n\n\t/*\n\tFunction getCustom : \n\n\t\t- input: none\n\n\t\t- output: string\n\n\tReturns the input of the query, stored in the blockchain.\n\tOnly gives the state of a variable, does not modify the blockchain.\n\tDoes not consume Ether\n\n\t*/\n\n\n\tfunction setResult(string memory input) public {\n\t\tresult = input;\n\t}\n\n\t/*\n\tFunction setResult : \n\n\t\t- input: string\n\n\t\t- output: none\n\n\tStores the result of the last request in the variable result.\n\tModifies the Blockchain, consumes Ether\n\n\n\t*/\n\t\n\n\tfunction getResult() public view returns(string memory)  {\n\t\treturn result;\n\t}\n\t\n\t/*\n\tFunction getResult : \n\n\t\t- input: none\n\n\t\t- output: string\n\n\tReturns the result of the last query, stored in the blockchain in the variable result.\n\tOnly gives the state of a variable, does not modify the blockchain.\n\tDoes not consume Ether\n\n\t*/\n\n\t\t\n\t\n\tfunction setCompare (string memory input) public {\n\t\tcompare = input;\n\t}\n\n\t/*\n\tFunction setCustom : \n\n\t\t- input: string\n\n\t\t- output: none\n\n\tChanges the input of the query.The new input replaces the old one, and is stored in the Blockchain.\n\tModifies the Blockchain, consumes Ether\n\n\t*/\n\n\n\tfunction getCompare () public view returns(string memory)  {\n\t\treturn compare;\n\t}\n\t\n\n\t/*\n\tFunction getCustom : \n\n\t\t- input: none\n\n\t\t- output: string\n\n\tReturns the input of the query, stored in the blockchain.\n\tOnly gives the state of a variable, does not modify the blockchain.\n\tDoes not consume Ether\n\n\t*/\n\n\n\n\t\n\n\n\tfunction getBoolComparation () public view returns(string memory)  {\n\t\t\treturn boolComparation;\n\t}\n\n\tfunction compareHashes () public  returns(string memory) {\n\t\tif(keccak256(bytes(result)) == keccak256(bytes(compare))){\n\t\t\tboolComparation=\"true\";\n\t\t}else{\n\t\tboolComparation=\"false\";\n\t\t}\n\t\treturn boolComparation;\n\n\t}\n\t\n\n\tfunction CreateCustomEvent(string memory input) public {\n\t\temit customEvent(input);\n\t}\n\n\t/*\n\tFunction CreateCustomEvent: \n\n\t\t- input: string\n\n\t\t- output: none\n\n\tEmit a mysqlevent. The input of this event is the variable input (which is also the input of the query).\n\tThe event is written in a log in the blockchain when it is emitted.\n\n\n\t*/\n\tfunction CreateCustomEventResult(string memory input) public{\n\t\temit customEventResult(input);\n\t}\n\n}\n",
  "sourcePath": "/opt/lampp/htdocs/test_v2/BlockchainWebDB-master/WebServer/contracts/Gestion.sol",
  "compiler": {
    "name": "solc",
    "version": "0.5.0+commit.1d4f565a.Emscripten.clang"
  },
  "schemaVersion": "3.0.2",
  "updatedAt": "2019-03-21T12:20:18.874Z",
  "devdoc": {
    "methods": {}
  },
  "userdoc": {
    "methods": {},
    "notice": "********************************************************STORE DATA AND EMIT EVENTS********************************************************"
  }
}