{
  "contractName": "Gestion",
  "abi": [
    {
      "anonymous": false,
      "inputs": [
        {
          "indexed": false,
          "name": "mysqlcustom",
          "type": "string"
        },
        {
          "indexed": false,
          "name": "identificador",
          "type": "int256"
        }
      ],
      "name": "customEvent",
      "type": "event",
      "signature": "0xc30a4276f8fda1c8e78c4efcaac7298145e4c9e41fefe73bf92f5516f3ad8096"
    },
    {
      "anonymous": false,
      "inputs": [
        {
          "indexed": false,
          "name": "mysqlresult",
          "type": "string"
        },
        {
          "indexed": false,
          "name": "identificador",
          "type": "int256"
        }
      ],
      "name": "customEventResult",
      "type": "event",
      "signature": "0xed18062a85cf9e1233324b02c81188091a76c6c5cd040cff9c9d82c668cc602b"
    },
    {
      "constant": false,
      "inputs": [],
      "name": "inicializar",
      "outputs": [],
      "payable": false,
      "stateMutability": "nonpayable",
      "type": "function",
      "signature": "0xdcbe327e"
    },
    {
      "constant": false,
      "inputs": [
        {
          "name": "input",
          "type": "string"
        },
        {
          "name": "id",
          "type": "int256"
        }
      ],
      "name": "setCustom",
      "outputs": [],
      "payable": false,
      "stateMutability": "nonpayable",
      "type": "function",
      "signature": "0xbb62f4a7"
    },
    {
      "constant": true,
      "inputs": [
        {
          "name": "id",
          "type": "int256"
        }
      ],
      "name": "getCustom",
      "outputs": [
        {
          "name": "",
          "type": "string"
        }
      ],
      "payable": false,
      "stateMutability": "view",
      "type": "function",
      "signature": "0x648bf55c"
    },
    {
      "constant": false,
      "inputs": [
        {
          "name": "input",
          "type": "string"
        },
        {
          "name": "id",
          "type": "int256"
        }
      ],
      "name": "setResult",
      "outputs": [],
      "payable": false,
      "stateMutability": "nonpayable",
      "type": "function",
      "signature": "0x583da5af"
    },
    {
      "constant": true,
      "inputs": [
        {
          "name": "id",
          "type": "int256"
        }
      ],
      "name": "getResult",
      "outputs": [
        {
          "name": "",
          "type": "string"
        }
      ],
      "payable": false,
      "stateMutability": "view",
      "type": "function",
      "signature": "0x8a004e59"
    },
    {
      "constant": false,
      "inputs": [
        {
          "name": "input",
          "type": "string"
        },
        {
          "name": "id",
          "type": "int256"
        }
      ],
      "name": "setCompare",
      "outputs": [],
      "payable": false,
      "stateMutability": "nonpayable",
      "type": "function",
      "signature": "0x6345d033"
    },
    {
      "constant": true,
      "inputs": [
        {
          "name": "id",
          "type": "int256"
        }
      ],
      "name": "getCompare",
      "outputs": [
        {
          "name": "",
          "type": "string"
        }
      ],
      "payable": false,
      "stateMutability": "view",
      "type": "function",
      "signature": "0xa2097f04"
    },
    {
      "constant": true,
      "inputs": [
        {
          "name": "id",
          "type": "int256"
        }
      ],
      "name": "getBoolComparation",
      "outputs": [
        {
          "name": "",
          "type": "string"
        }
      ],
      "payable": false,
      "stateMutability": "view",
      "type": "function",
      "signature": "0x81eed6dd"
    },
    {
      "constant": false,
      "inputs": [
        {
          "name": "id",
          "type": "int256"
        }
      ],
      "name": "compareHashes",
      "outputs": [
        {
          "name": "",
          "type": "string"
        }
      ],
      "payable": false,
      "stateMutability": "nonpayable",
      "type": "function",
      "signature": "0xf33e6c94"
    },
    {
      "constant": false,
      "inputs": [
        {
          "name": "id",
          "type": "int256"
        }
      ],
      "name": "limpiarId",
      "outputs": [],
      "payable": false,
      "stateMutability": "nonpayable",
      "type": "function",
      "signature": "0x0209acad"
    },
    {
      "constant": false,
      "inputs": [
        {
          "name": "input",
          "type": "string"
        }
      ],
      "name": "traducir",
      "outputs": [
        {
          "name": "id",
          "type": "int256"
        }
      ],
      "payable": false,
      "stateMutability": "nonpayable",
      "type": "function",
      "signature": "0x85acba33"
    },
    {
      "constant": false,
      "inputs": [
        {
          "name": "input",
          "type": "string"
        },
        {
          "name": "identificador",
          "type": "int256"
        }
      ],
      "name": "CreateCustomEvent",
      "outputs": [],
      "payable": false,
      "stateMutability": "nonpayable",
      "type": "function",
      "signature": "0xcc616780"
    },
    {
      "constant": false,
      "inputs": [
        {
          "name": "input",
          "type": "string"
        },
        {
          "name": "identificador",
          "type": "int256"
        }
      ],
      "name": "CreateCustomEventResult",
      "outputs": [],
      "payable": false,
      "stateMutability": "nonpayable",
      "type": "function",
      "signature": "0xa17d36b3"
    }
  ],
  "bytecode": "0x608060405234801561001057600080fd5b50611736806100206000396000f3fe6080604052600436106100c5576000357c0100000000000000000000000000000000000000000000000000000000900463ffffffff1680630209acad146100ca578063583da5af146101055780636345d033146101d7578063648bf55c146102a957806381eed6dd1461035d57806385acba33146104115780638a004e59146104ed578063a17d36b3146105a1578063a2097f0414610673578063bb62f4a714610727578063cc616780146107f9578063dcbe327e146108cb578063f33e6c94146108e2575b600080fd5b3480156100d657600080fd5b50610103600480360360208110156100ed57600080fd5b8101908080359060200190929190505050610996565b005b34801561011157600080fd5b506101d56004803603604081101561012857600080fd5b810190808035906020019064010000000081111561014557600080fd5b82018360208201111561015757600080fd5b8035906020019184600183028401116401000000008311171561017957600080fd5b91908080601f016020809104026020016040519081016040528093929190818152602001838380828437600081840152601f19601f82011690508083019250505050505050919291929080359060200190929190505050610a81565b005b3480156101e357600080fd5b506102a7600480360360408110156101fa57600080fd5b810190808035906020019064010000000081111561021757600080fd5b82018360208201111561022957600080fd5b8035906020019184600183028401116401000000008311171561024b57600080fd5b91908080601f016020809104026020016040519081016040528093929190818152602001838380828437600081840152601f19601f82011690508083019250505050505050919291929080359060200190929190505050610aaf565b005b3480156102b557600080fd5b506102e2600480360360208110156102cc57600080fd5b8101908080359060200190929190505050610add565b6040518080602001828103825283818151815260200191508051906020019080838360005b83811015610322578082015181840152602081019050610307565b50505050905090810190601f16801561034f5780820380516001836020036101000a031916815260200191505b509250505060405180910390f35b34801561036957600080fd5b506103966004803603602081101561038057600080fd5b8101908080359060200190929190505050610b94565b6040518080602001828103825283818151815260200191508051906020019080838360005b838110156103d65780820151818401526020810190506103bb565b50505050905090810190601f1680156104035780820380516001836020036101000a031916815260200191505b509250505060405180910390f35b34801561041d57600080fd5b506104d76004803603602081101561043457600080fd5b810190808035906020019064010000000081111561045157600080fd5b82018360208201111561046357600080fd5b8035906020019184600183028401116401000000008311171561048557600080fd5b91908080601f016020809104026020016040519081016040528093929190818152602001838380828437600081840152601f19601f820116905080830192505050505050509192919290505050610c4b565b6040518082815260200191505060405180910390f35b3480156104f957600080fd5b506105266004803603602081101561051057600080fd5b8101908080359060200190929190505050610f62565b6040518080602001828103825283818151815260200191508051906020019080838360005b8381101561056657808201518184015260208101905061054b565b50505050905090810190601f1680156105935780820380516001836020036101000a031916815260200191505b509250505060405180910390f35b3480156105ad57600080fd5b50610671600480360360408110156105c457600080fd5b81019080803590602001906401000000008111156105e157600080fd5b8201836020820111156105f357600080fd5b8035906020019184600183028401116401000000008311171561061557600080fd5b91908080601f016020809104026020016040519081016040528093929190818152602001838380828437600081840152601f19601f82011690508083019250505050505050919291929080359060200190929190505050611019565b005b34801561067f57600080fd5b506106ac6004803603602081101561069657600080fd5b81019080803590602001909291905050506110c1565b6040518080602001828103825283818151815260200191508051906020019080838360005b838110156106ec5780820151818401526020810190506106d1565b50505050905090810190601f1680156107195780820380516001836020036101000a031916815260200191505b509250505060405180910390f35b34801561073357600080fd5b506107f76004803603604081101561074a57600080fd5b810190808035906020019064010000000081111561076757600080fd5b82018360208201111561077957600080fd5b8035906020019184600183028401116401000000008311171561079b57600080fd5b91908080601f016020809104026020016040519081016040528093929190818152602001838380828437600081840152601f19601f82011690508083019250505050505050919291929080359060200190929190505050611178565b005b34801561080557600080fd5b506108c96004803603604081101561081c57600080fd5b810190808035906020019064010000000081111561083957600080fd5b82018360208201111561084b57600080fd5b8035906020019184600183028401116401000000008311171561086d57600080fd5b91908080601f016020809104026020016040519081016040528093929190818152602001838380828437600081840152601f19601f820116905080830192505050505050509192919290803590602001909291905050506111a6565b005b3480156108d757600080fd5b506108e061124e565b005b3480156108ee57600080fd5b5061091b6004803603602081101561090557600080fd5b810190808035906020019092919050505061136a565b6040518080602001828103825283818151815260200191508051906020019080838360005b8381101561095b578082015181840152602081019050610940565b50505050905090810190601f1680156109885780820380516001836020036101000a031916815260200191505b509250505060405180910390f35b602060405190810160405280600081525060008083815260200190815260200160002060010190805190602001906109cf9291906115e5565b5060206040519081016040528060008152506000808381526020019081526020016000206000019080519060200190610a099291906115e5565b5060206040519081016040528060008152506000808381526020019081526020016000206002019080519060200190610a439291906115e5565b5060206040519081016040528060008152506000808381526020019081526020016000206003019080519060200190610a7d9291906115e5565b5050565b816000808381526020019081526020016000206000019080519060200190610aaa9291906115e5565b505050565b816000808381526020019081526020016000206002019080519060200190610ad89291906115e5565b505050565b60606000808381526020019081526020016000206001018054600181600116156101000203166002900480601f016020809104026020016040519081016040528092919081815260200182805460018160011615610100020316600290048015610b885780601f10610b5d57610100808354040283529160200191610b88565b820191906000526020600020905b815481529060010190602001808311610b6b57829003601f168201915b50505050509050919050565b60606000808381526020019081526020016000206003018054600181600116156101000203166002900480601f016020809104026020016040519081016040528092919081815260200182805460018160011615610100020316600290048015610c3f5780601f10610c1457610100808354040283529160200191610c3f565b820191906000526020600020905b815481529060010190602001808311610c2257829003601f168201915b50505050509050919050565b600060405180807f31000000000000000000000000000000000000000000000000000000000000008152506001019050604051809103902082805190602001201415610c9a5760019050610f5d565b60405180807f32000000000000000000000000000000000000000000000000000000000000008152506001019050604051809103902082805190602001201415610ce75760029050610f5c565b60405180807f33000000000000000000000000000000000000000000000000000000000000008152506001019050604051809103902082805190602001201415610d345760039050610f5b565b60405180807f34000000000000000000000000000000000000000000000000000000000000008152506001019050604051809103902082805190602001201415610d815760049050610f5a565b60405180807f35000000000000000000000000000000000000000000000000000000000000008152506001019050604051809103902082805190602001201415610dce5760059050610f59565b60405180807f36000000000000000000000000000000000000000000000000000000000000008152506001019050604051809103902082805190602001201415610e1b5760069050610f58565b60405180807f37000000000000000000000000000000000000000000000000000000000000008152506001019050604051809103902082805190602001201415610e685760079050610f57565b60405180807f38000000000000000000000000000000000000000000000000000000000000008152506001019050604051809103902082805190602001201415610eb55760089050610f56565b60405180807f39000000000000000000000000000000000000000000000000000000000000008152506001019050604051809103902082805190602001201415610f025760099050610f55565b60405180807f31300000000000000000000000000000000000000000000000000000000000008152506002019050604051809103902082805190602001201415610f4f57600a9050610f54565b606390505b5b5b5b5b5b5b5b5b5b919050565b60606000808381526020019081526020016000206000018054600181600116156101000203166002900480601f01602080910402602001604051908101604052809291908181526020018280546001816001161561010002031660029004801561100d5780601f10610fe25761010080835404028352916020019161100d565b820191906000526020600020905b815481529060010190602001808311610ff057829003601f168201915b50505050509050919050565b7fed18062a85cf9e1233324b02c81188091a76c6c5cd040cff9c9d82c668cc602b82826040518080602001838152602001828103825284818151815260200191508051906020019080838360005b83811015611082578082015181840152602081019050611067565b50505050905090810190601f1680156110af5780820380516001836020036101000a031916815260200191505b50935050505060405180910390a15050565b60606000808381526020019081526020016000206002018054600181600116156101000203166002900480601f01602080910402602001604051908101604052809291908181526020018280546001816001161561010002031660029004801561116c5780601f106111415761010080835404028352916020019161116c565b820191906000526020600020905b81548152906001019060200180831161114f57829003601f168201915b50505050509050919050565b8160008083815260200190815260200160002060010190805190602001906111a19291906115e5565b505050565b7fc30a4276f8fda1c8e78c4efcaac7298145e4c9e41fefe73bf92f5516f3ad809682826040518080602001838152602001828103825284818151815260200191508051906020019080838360005b8381101561120f5780820151818401526020810190506111f4565b50505050905090810190601f16801561123c5780820380516001836020036101000a031916815260200191505b50935050505060405180910390a15050565b6000600190505b600a811315156113675760a060405190810160405280602060405190810160405280600081525081526020016020604051908101604052806000815250815260200160206040519081016040528060008152508152602001602060405190810160405280600081525081526020018281525060008083815260200190815260200160002060008201518160000190805190602001906112f5929190611665565b506020820151816001019080519060200190611312929190611665565b50604082015181600201908051906020019061132f929190611665565b50606082015181600301908051906020019061134c929190611665565b50608082015181600401559050508080600101915050611255565b50565b606060008083815260200190815260200160002060020160405180828054600181600116156101000203166002900480156113dc5780601f106113ba5761010080835404028352918201916113dc565b820191906000526020600020905b8154815290600101906020018083116113c8575b5050915050604051809103902060008084815260200190815260200160002060000160405180828054600181600116156101000203166002900480156114595780601f10611437576101008083540402835291820191611459565b820191906000526020600020905b815481529060010190602001808311611445575b5050915050604051809103902014156114d0576040805190810160405280600481526020017f747275650000000000000000000000000000000000000000000000000000000081525060008084815260200190815260200160002060030190805190602001906114ca9291906115e5565b50611530565b6040805190810160405280600581526020017f66616c7365000000000000000000000000000000000000000000000000000000815250600080848152602001908152602001600020600301908051906020019061152e9291906115e5565b505b6000808381526020019081526020016000206003018054600181600116156101000203166002900480601f0160208091040260200160405190810160405280929190818152602001828054600181600116156101000203166002900480156115d95780601f106115ae576101008083540402835291602001916115d9565b820191906000526020600020905b8154815290600101906020018083116115bc57829003601f168201915b50505050509050919050565b828054600181600116156101000203166002900490600052602060002090601f016020900481019282601f1061162657805160ff1916838001178555611654565b82800160010185558215611654579182015b82811115611653578251825591602001919060010190611638565b5b50905061166191906116e5565b5090565b828054600181600116156101000203166002900490600052602060002090601f016020900481019282601f106116a657805160ff19168380011785556116d4565b828001600101855582156116d4579182015b828111156116d35782518255916020019190600101906116b8565b5b5090506116e191906116e5565b5090565b61170791905b808211156117035760008160009055506001016116eb565b5090565b9056fea165627a7a72305820278f87e625a42e50f3832a1cd4cf6cea05c9c0317ed28193318e5a291b176a3a0029",
  "source": "pragma solidity ^0.5.0;\n///////////////////////////////////////////////////////////////////////////////////////////////////////////////////////////////////////////////\n/**********************************************************STORE DATA AND EMIT EVENTS*********************************************************/\n\ncontract Gestion {\n\n\t//string result = \"No Query\"; // The result of the query is stored in this variable\n\n\t//string custom = \"No request\"; // We will store the complete custom request in this variable\n\n\t//string compare = \"No compare\";\n\n\t//string boolComparation= \"false\";\n\n\tstruct datosStruct{\n\t\tstring result;\n\t\tstring custom;\n\t\tstring compare;\n\t\tstring boolComparation;\n\t\tint256 id;\n\t}\n\tmapping (int256 => datosStruct) mappingUsuarios;\n\n\t//https://ethereum.stackexchange.com/questions/6121/parse-json-in-solidity\n\t\n    event customEvent (string mysqlcustom, int256 identificador);\n    // Event used to send a MySQL Query. The input is the query input. It allows to record the query\n\t\n\tevent customEventResult(string mysqlresult, int256 identificador);\n\t\n\tfunction inicializar () public{\n\t\tfor(int256 i=1; i<=10; i++){\n\t\t\tmappingUsuarios[i]=datosStruct(\"\",\"\",\"\",\"\",i);\n\n\t\t}\n\t}\n\n\tfunction setCustom (string memory input, int256  id) public {\n\t///\tcustom = input;\n\t\tmappingUsuarios[id].custom=input;\n\t}\n\n\t/*\n\tFunction setCustom : \n\n\t\t- input: string\n\n\t\t- output: none\n\n\tChanges the input of the query.The new input replaces the old one, and is stored in the Blockchain.\n\tModifies the Blockchain, consumes Ether\n\n\t*/\n\n\n\tfunction getCustom (int256  id) public view returns(string memory)  {\n\t\t//return custom;\n\t\treturn mappingUsuarios[id].custom;\n\t}\n\t\n\n\t/*\n\tFunction getCustom : \n\n\t\t- input: none\n\n\t\t- output: string\n\n\tReturns the input of the query, stored in the blockchain.\n\tOnly gives the state of a variable, does not modify the blockchain.\n\tDoes not consume Ether\n\n\t*/\n\n\n\tfunction setResult(string memory input, int256 id) public {\n\t\t//result = input;\n\t\tmappingUsuarios[id].result=input;\n\t}\n\n\t/*\n\tFunction setResult : \n\n\t\t- input: string\n\n\t\t- output: none\n\n\tStores the result of the last request in the variable result.\n\tModifies the Blockchain, consumes Ether\n\n\n\t*/\n\t\n\n\tfunction getResult(int256 id) public view returns(string memory)  {\n\t\t//return result;\n\t\treturn mappingUsuarios[id].result;\n\t}\n\t\n\t/*\n\tFunction getResult : \n\n\t\t- input: none\n\n\t\t- output: string\n\n\tReturns the result of the last query, stored in the blockchain in the variable result.\n\tOnly gives the state of a variable, does not modify the blockchain.\n\tDoes not consume Ether\n\n\t*/\n\n\t\t\n\t\n\tfunction setCompare (string memory input, int256 id) public {\n\t\t//compare = input;\n\t\tmappingUsuarios[id].compare=input;\n\t}\n\n\t/*\n\tFunction setCustom : \n\n\t\t- input: string\n\n\t\t- output: none\n\n\tChanges the input of the query.The new input replaces the old one, and is stored in the Blockchain.\n\tModifies the Blockchain, consumes Ether\n\n\t*/\n\n\n\tfunction getCompare (int256 id) public view returns(string memory)  {\n\t//\treturn compare;\n\t\treturn mappingUsuarios[id].compare;\n\t}\n\t\n\n\t/*\n\tFunction getCustom : \n\n\t\t- input: none\n\n\t\t- output: string\n\n\tReturns the input of the query, stored in the blockchain.\n\tOnly gives the state of a variable, does not modify the blockchain.\n\tDoes not consume Ether\n\n\t*/\n\n\n\n\t\n\n\n\tfunction getBoolComparation (int256 id) public view returns(string memory)  {\n\t\t\t//return boolComparation;\n\t\t\treturn mappingUsuarios[id].boolComparation;\n\t}\n\n\tfunction compareHashes (int256 id) public  returns(string memory) {\n\t\tif(keccak256(bytes(mappingUsuarios[id].result)) == keccak256(bytes(mappingUsuarios[id].compare))){\n\t\t\tmappingUsuarios[id].boolComparation=\"true\";\n\t\t}else{\n\t\t\tmappingUsuarios[id].boolComparation=\"false\";\n\t\t}\n\t\treturn mappingUsuarios[id].boolComparation;\n\n\t}\n\n\tfunction limpiarId (int256 id) public  {\n\t\t\tmappingUsuarios[id].custom=\"\";\n\t\t\tmappingUsuarios[id].result=\"\";\n\t\t\tmappingUsuarios[id].compare=\"\";\t\t\t\n\t\t\tmappingUsuarios[id].boolComparation=\"\";\n\t}\n\n\tfunction traducir(string memory input) public returns (int256 id){\n\t\t\tif(keccak256(bytes(input))==keccak256(\"1\")){\n\t\t\t\tid=1;\n\t\t\t}else if(keccak256(bytes(input))==keccak256(\"2\")){\n\t\t\t\tid=2;\n\t\t\t}else if(keccak256(bytes(input))==keccak256(\"3\")){\n\t\t\t\tid=3;\n\t\t\t}else if(keccak256(bytes(input))==keccak256(\"4\")){\n\t\t\t\tid=4;\n\t\t\t}else if(keccak256(bytes(input))==keccak256(\"5\")){\n\t\t\t\tid=5;\n\t\t\t}else if(keccak256(bytes(input))==keccak256(\"6\")){\n\t\t\t\tid=6;\n\t\t\t}else if(keccak256(bytes(input))==keccak256(\"7\")){\n\t\t\t\tid=7;\n\t\t\t}else if(keccak256(bytes(input))==keccak256(\"8\")){\n\t\t\t\tid=8;\n\t\t\t}else if(keccak256(bytes(input))==keccak256(\"9\")){\n\t\t\t\tid=9;\n\t\t\t}else if(keccak256(bytes(input))==keccak256(\"10\")){\n\t\t\t\tid=10;\n\t\t\t}else{\n\t\t\t\tid=99;\n\t\t\t}\n\t}\n\t\n\n\tfunction CreateCustomEvent(string memory input, int256 identificador) public {\n\t\temit customEvent(input, identificador);\n\t}\n\n\t/*\n\tFunction CreateCustomEvent: \n\n\t\t- input: string\n\n\t\t- output: none\n\n\tEmit a mysqlevent. The input of this event is the variable input (which is also the input of the query).\n\tThe event is written in a log in the blockchain when it is emitted.\n\n\n\t*/\n\tfunction CreateCustomEventResult(string memory input, int256 identificador) public{\n\t\temit customEventResult(input, identificador);\n\t}\n\n}\n",
  "sourcePath": "/opt/lampp/htdocs/test_v2/BlockchainWebDB-master/WebServer/contracts/Gestion.sol",
  "compiler": {
    "name": "solc",
    "version": "0.5.0+commit.1d4f565a.Emscripten.clang"
  },
  "schemaVersion": "3.0.2",
  "updatedAt": "2019-03-26T09:29:44.052Z",
  "devdoc": {
    "methods": {}
  },
  "userdoc": {
    "methods": {},
    "notice": "********************************************************STORE DATA AND EMIT EVENTS********************************************************"
  }
}