{
  "contractName": "Gestion",
  "abi": [
    {
      "anonymous": false,
      "inputs": [
        {
          "indexed": false,
          "name": "mysqlcustom",
          "type": "string"
        }
      ],
      "name": "customEvent",
      "type": "event",
      "signature": "0x818d2411fb91789e92f56372e7b3507b252d906389d61065b79c41fbb3df6169"
    },
    {
      "constant": false,
      "inputs": [
        {
          "name": "input",
          "type": "string"
        }
      ],
      "name": "setCustom",
      "outputs": [],
      "payable": false,
      "stateMutability": "nonpayable",
      "type": "function",
      "signature": "0xef8adfc3"
    },
    {
      "constant": true,
      "inputs": [],
      "name": "getCustom",
      "outputs": [
        {
          "name": "",
          "type": "string"
        }
      ],
      "payable": false,
      "stateMutability": "view",
      "type": "function",
      "signature": "0xd01ae036"
    },
    {
      "constant": false,
      "inputs": [
        {
          "name": "input",
          "type": "string"
        }
      ],
      "name": "setResult",
      "outputs": [],
      "payable": false,
      "stateMutability": "nonpayable",
      "type": "function",
      "signature": "0x88e3cfda"
    },
    {
      "constant": true,
      "inputs": [],
      "name": "getResult",
      "outputs": [
        {
          "name": "",
          "type": "string"
        }
      ],
      "payable": false,
      "stateMutability": "view",
      "type": "function",
      "signature": "0xde292789"
    },
    {
      "constant": false,
      "inputs": [
        {
          "name": "input",
          "type": "string"
        }
      ],
      "name": "setCompare",
      "outputs": [],
      "payable": false,
      "stateMutability": "nonpayable",
      "type": "function",
      "signature": "0xdae64498"
    },
    {
      "constant": true,
      "inputs": [],
      "name": "getCompare",
      "outputs": [
        {
          "name": "",
          "type": "string"
        }
      ],
      "payable": false,
      "stateMutability": "view",
      "type": "function",
      "signature": "0x37881299"
    },
    {
      "constant": true,
      "inputs": [],
      "name": "getBoolComparation",
      "outputs": [
        {
          "name": "",
          "type": "string"
        }
      ],
      "payable": false,
      "stateMutability": "view",
      "type": "function",
      "signature": "0xb0234cdc"
    },
    {
      "constant": false,
      "inputs": [],
      "name": "compareHashes",
      "outputs": [
        {
          "name": "",
          "type": "string"
        }
      ],
      "payable": false,
      "stateMutability": "nonpayable",
      "type": "function",
      "signature": "0xe540f7ee"
    },
    {
      "constant": false,
      "inputs": [
        {
          "name": "input",
          "type": "string"
        }
      ],
      "name": "CreateCustomEvent",
      "outputs": [],
      "payable": false,
      "stateMutability": "nonpayable",
      "type": "function",
      "signature": "0xf73361a4"
    }
  ],
  "bytecode": "0x60806040526040805190810160405280600881526020017f4e6f205175657279000000000000000000000000000000000000000000000000815250600090805190602001906200005192919062000150565b506040805190810160405280600a81526020017f4e6f207265717565737400000000000000000000000000000000000000000000815250600190805190602001906200009f92919062000150565b506040805190810160405280600a81526020017f4e6f20636f6d706172650000000000000000000000000000000000000000000081525060029080519060200190620000ed92919062000150565b506040805190810160405280600581526020017f66616c7365000000000000000000000000000000000000000000000000000000815250600390805190602001906200013b92919062000150565b503480156200014957600080fd5b50620001ff565b828054600181600116156101000203166002900490600052602060002090601f016020900481019282601f106200019357805160ff1916838001178555620001c4565b82800160010185558215620001c4579182015b82811115620001c3578251825591602001919060010190620001a6565b5b509050620001d39190620001d7565b5090565b620001fc91905b80821115620001f8576000816000905550600101620001de565b5090565b90565b610cee806200020f6000396000f3fe608060405260043610610099576000357c0100000000000000000000000000000000000000000000000000000000900463ffffffff168063378812991461009e57806388e3cfda1461012e578063b0234cdc146101f6578063d01ae03614610286578063dae6449814610316578063de292789146103de578063e540f7ee1461046e578063ef8adfc3146104fe578063f73361a4146105c6575b600080fd5b3480156100aa57600080fd5b506100b361068e565b6040518080602001828103825283818151815260200191508051906020019080838360005b838110156100f35780820151818401526020810190506100d8565b50505050905090810190601f1680156101205780820380516001836020036101000a031916815260200191505b509250505060405180910390f35b34801561013a57600080fd5b506101f46004803603602081101561015157600080fd5b810190808035906020019064010000000081111561016e57600080fd5b82018360208201111561018057600080fd5b803590602001918460018302840111640100000000831117156101a257600080fd5b91908080601f016020809104026020016040519081016040528093929190818152602001838380828437600081840152601f19601f820116905080830192505050505050509192919290505050610730565b005b34801561020257600080fd5b5061020b61074a565b6040518080602001828103825283818151815260200191508051906020019080838360005b8381101561024b578082015181840152602081019050610230565b50505050905090810190601f1680156102785780820380516001836020036101000a031916815260200191505b509250505060405180910390f35b34801561029257600080fd5b5061029b6107ec565b6040518080602001828103825283818151815260200191508051906020019080838360005b838110156102db5780820151818401526020810190506102c0565b50505050905090810190601f1680156103085780820380516001836020036101000a031916815260200191505b509250505060405180910390f35b34801561032257600080fd5b506103dc6004803603602081101561033957600080fd5b810190808035906020019064010000000081111561035657600080fd5b82018360208201111561036857600080fd5b8035906020019184600183028401116401000000008311171561038a57600080fd5b91908080601f016020809104026020016040519081016040528093929190818152602001838380828437600081840152601f19601f82011690508083019250505050505050919291929050505061088e565b005b3480156103ea57600080fd5b506103f36108a8565b6040518080602001828103825283818151815260200191508051906020019080838360005b83811015610433578082015181840152602081019050610418565b50505050905090810190601f1680156104605780820380516001836020036101000a031916815260200191505b509250505060405180910390f35b34801561047a57600080fd5b5061048361094a565b6040518080602001828103825283818151815260200191508051906020019080838360005b838110156104c35780820151818401526020810190506104a8565b50505050905090810190601f1680156104f05780820380516001836020036101000a031916815260200191505b509250505060405180910390f35b34801561050a57600080fd5b506105c46004803603602081101561052157600080fd5b810190808035906020019064010000000081111561053e57600080fd5b82018360208201111561055057600080fd5b8035906020019184600183028401116401000000008311171561057257600080fd5b91908080601f016020809104026020016040519081016040528093929190818152602001838380828437600081840152601f19601f820116905080830192505050505050509192919290505050610b64565b005b3480156105d257600080fd5b5061068c600480360360208110156105e957600080fd5b810190808035906020019064010000000081111561060657600080fd5b82018360208201111561061857600080fd5b8035906020019184600183028401116401000000008311171561063a57600080fd5b91908080601f016020809104026020016040519081016040528093929190818152602001838380828437600081840152601f19601f820116905080830192505050505050509192919290505050610b7e565b005b606060028054600181600116156101000203166002900480601f0160208091040260200160405190810160405280929190818152602001828054600181600116156101000203166002900480156107265780601f106106fb57610100808354040283529160200191610726565b820191906000526020600020905b81548152906001019060200180831161070957829003601f168201915b5050505050905090565b8060009080519060200190610746929190610c1d565b5050565b606060038054600181600116156101000203166002900480601f0160208091040260200160405190810160405280929190818152602001828054600181600116156101000203166002900480156107e25780601f106107b7576101008083540402835291602001916107e2565b820191906000526020600020905b8154815290600101906020018083116107c557829003601f168201915b5050505050905090565b606060018054600181600116156101000203166002900480601f0160208091040260200160405190810160405280929190818152602001828054600181600116156101000203166002900480156108845780601f1061085957610100808354040283529160200191610884565b820191906000526020600020905b81548152906001019060200180831161086757829003601f168201915b5050505050905090565b80600290805190602001906108a4929190610c1d565b5050565b606060008054600181600116156101000203166002900480601f0160208091040260200160405190810160405280929190818152602001828054600181600116156101000203166002900480156109405780601f1061091557610100808354040283529160200191610940565b820191906000526020600020905b81548152906001019060200180831161092357829003601f168201915b5050505050905090565b6060600260405180828054600181600116156101000203166002900480156109a95780601f106109875761010080835404028352918201916109a9565b820191906000526020600020905b815481529060010190602001808311610995575b5050915050604051809103902060006040518082805460018160011615610100020316600290048015610a135780601f106109f1576101008083540402835291820191610a13565b820191906000526020600020905b8154815290600101906020018083116109ff575b505091505060405180910390201415610a77576040805190810160405280600481526020017f747275650000000000000000000000000000000000000000000000000000000081525060039080519060200190610a71929190610c1d565b50610ac4565b6040805190810160405280600581526020017f66616c736500000000000000000000000000000000000000000000000000000081525060039080519060200190610ac2929190610c1d565b505b60038054600181600116156101000203166002900480601f016020809104026020016040519081016040528092919081815260200182805460018160011615610100020316600290048015610b5a5780601f10610b2f57610100808354040283529160200191610b5a565b820191906000526020600020905b815481529060010190602001808311610b3d57829003601f168201915b5050505050905090565b8060019080519060200190610b7a929190610c1d565b5050565b7f818d2411fb91789e92f56372e7b3507b252d906389d61065b79c41fbb3df6169816040518080602001828103825283818151815260200191508051906020019080838360005b83811015610be0578082015181840152602081019050610bc5565b50505050905090810190601f168015610c0d5780820380516001836020036101000a031916815260200191505b509250505060405180910390a150565b828054600181600116156101000203166002900490600052602060002090601f016020900481019282601f10610c5e57805160ff1916838001178555610c8c565b82800160010185558215610c8c579182015b82811115610c8b578251825591602001919060010190610c70565b5b509050610c999190610c9d565b5090565b610cbf91905b80821115610cbb576000816000905550600101610ca3565b5090565b9056fea165627a7a72305820b1c5faba54fb698316832f56ade959e069572ba58250d526a95f4ee438234cc50029",
  "source": "pragma solidity ^0.5.0;\n///////////////////////////////////////////////////////////////////////////////////////////////////////////////////////////////////////////////\n/**********************************************************STORE DATA AND EMIT EVENTS*********************************************************/\n\ncontract Gestion {\n\n\tstring result = \"No Query\"; // The result of the query is stored in this variable\n\n\tstring custom = \"No request\"; // We will store the complete custom request in this variable\n\n\tstring compare = \"No compare\";\n\n\tstring boolComparation= \"false\";\n\t//https://ethereum.stackexchange.com/questions/6121/parse-json-in-solidity\n\t\n    event customEvent (string mysqlcustom);\n    // Event used to send a MySQL Query. The input is the query input. It allows to record the query\n\t\n\t\n\t\n\tfunction setCustom (string memory input) public {\n\t\tcustom = input;\n\t}\n\n\t/*\n\tFunction setCustom : \n\n\t\t- input: string\n\n\t\t- output: none\n\n\tChanges the input of the query.The new input replaces the old one, and is stored in the Blockchain.\n\tModifies the Blockchain, consumes Ether\n\n\t*/\n\n\n\tfunction getCustom () public view returns(string memory)  {\n\t\treturn custom;\n\t}\n\t\n\n\t/*\n\tFunction getCustom : \n\n\t\t- input: none\n\n\t\t- output: string\n\n\tReturns the input of the query, stored in the blockchain.\n\tOnly gives the state of a variable, does not modify the blockchain.\n\tDoes not consume Ether\n\n\t*/\n\n\n\tfunction setResult(string memory input) public {\n\t\tresult = input;\n\t}\n\n\t/*\n\tFunction setResult : \n\n\t\t- input: string\n\n\t\t- output: none\n\n\tStores the result of the last request in the variable result.\n\tModifies the Blockchain, consumes Ether\n\n\n\t*/\n\t\n\n\tfunction getResult() public view returns(string memory)  {\n\t\treturn result;\n\t}\n\t\n\t/*\n\tFunction getResult : \n\n\t\t- input: none\n\n\t\t- output: string\n\n\tReturns the result of the last query, stored in the blockchain in the variable result.\n\tOnly gives the state of a variable, does not modify the blockchain.\n\tDoes not consume Ether\n\n\t*/\n\n\t\t\n\t\n\tfunction setCompare (string memory input) public {\n\t\tcompare = input;\n\t}\n\n\t/*\n\tFunction setCustom : \n\n\t\t- input: string\n\n\t\t- output: none\n\n\tChanges the input of the query.The new input replaces the old one, and is stored in the Blockchain.\n\tModifies the Blockchain, consumes Ether\n\n\t*/\n\n\n\tfunction getCompare () public view returns(string memory)  {\n\t\treturn compare;\n\t}\n\t\n\n\t/*\n\tFunction getCustom : \n\n\t\t- input: none\n\n\t\t- output: string\n\n\tReturns the input of the query, stored in the blockchain.\n\tOnly gives the state of a variable, does not modify the blockchain.\n\tDoes not consume Ether\n\n\t*/\n\n\n\n\t\n\n\n\tfunction getBoolComparation () public view returns(string memory)  {\n\t\t\treturn boolComparation;\n\t}\n\n\tfunction compareHashes () public  returns(string memory) {\n\t\tif(keccak256(bytes(result)) == keccak256(bytes(compare))){\n\t\t\tboolComparation=\"true\";\n\t\t}else{\n\t\tboolComparation=\"false\";\n\t\t}\n\t\treturn boolComparation;\n\n\t}\n\t\n\n\tfunction CreateCustomEvent(string memory input) public {\n\t\temit customEvent(input);\n\t}\n\n\t/*\n\tFunction CreateCustomEvent: \n\n\t\t- input: string\n\n\t\t- output: none\n\n\tEmit a mysqlevent. The input of this event is the variable input (which is also the input of the query).\n\tThe event is written in a log in the blockchain when it is emitted.\n\n\n\t*/\n\n}\n",
  "sourcePath": "/opt/lampp/htdocs/test_v2/BlockchainWebDB-master/WebServer/contracts/Gestion.sol",
  "compiler": {
    "name": "solc",
    "version": "0.5.0+commit.1d4f565a.Emscripten.clang"
  },
  "schemaVersion": "3.0.2",
  "updatedAt": "2019-03-16T18:57:15.360Z",
  "devdoc": {
    "methods": {}
  },
  "userdoc": {
    "methods": {},
    "notice": "********************************************************STORE DATA AND EMIT EVENTS********************************************************"
  }
}