{
  "contractName": "Gestion",
  "abi": [
    {
      "anonymous": false,
      "inputs": [
        {
          "indexed": false,
          "name": "mysqlcustom",
          "type": "string"
        }
      ],
      "name": "customEvent",
      "type": "event",
      "signature": "0x818d2411fb91789e92f56372e7b3507b252d906389d61065b79c41fbb3df6169"
    },
    {
      "anonymous": false,
      "inputs": [
        {
          "indexed": false,
          "name": "mysqlresult",
          "type": "string"
        }
      ],
      "name": "customEventResult",
      "type": "event",
      "signature": "0x7e1b9889c040dba8bfc707a45ae7682dc815451a3c9e7c5bac0eb5f86cc885d3"
    },
    {
      "constant": false,
      "inputs": [
        {
          "name": "identificador",
          "type": "int256"
        }
      ],
      "name": "inicializar",
      "outputs": [],
      "payable": false,
      "stateMutability": "nonpayable",
      "type": "function",
      "signature": "0xfa12f3d8"
    },
    {
      "constant": false,
      "inputs": [
        {
          "name": "input",
          "type": "string"
        },
        {
          "name": "id",
          "type": "int256"
        }
      ],
      "name": "setResult",
      "outputs": [],
      "payable": false,
      "stateMutability": "nonpayable",
      "type": "function",
      "signature": "0x583da5af"
    },
    {
      "constant": true,
      "inputs": [
        {
          "name": "id",
          "type": "int256"
        }
      ],
      "name": "getResult",
      "outputs": [
        {
          "name": "",
          "type": "string"
        }
      ],
      "payable": false,
      "stateMutability": "view",
      "type": "function",
      "signature": "0x8a004e59"
    },
    {
      "constant": false,
      "inputs": [
        {
          "name": "input",
          "type": "string"
        },
        {
          "name": "id",
          "type": "int256"
        }
      ],
      "name": "setCompare",
      "outputs": [],
      "payable": false,
      "stateMutability": "nonpayable",
      "type": "function",
      "signature": "0x6345d033"
    },
    {
      "constant": true,
      "inputs": [
        {
          "name": "id",
          "type": "int256"
        }
      ],
      "name": "getCompare",
      "outputs": [
        {
          "name": "",
          "type": "string"
        }
      ],
      "payable": false,
      "stateMutability": "view",
      "type": "function",
      "signature": "0xa2097f04"
    },
    {
      "constant": true,
      "inputs": [
        {
          "name": "id",
          "type": "int256"
        }
      ],
      "name": "getBoolComparation",
      "outputs": [
        {
          "name": "",
          "type": "string"
        }
      ],
      "payable": false,
      "stateMutability": "view",
      "type": "function",
      "signature": "0x81eed6dd"
    },
    {
      "constant": false,
      "inputs": [
        {
          "name": "id",
          "type": "int256"
        }
      ],
      "name": "compareHashes",
      "outputs": [
        {
          "name": "",
          "type": "string"
        }
      ],
      "payable": false,
      "stateMutability": "nonpayable",
      "type": "function",
      "signature": "0xf33e6c94"
    },
    {
      "constant": false,
      "inputs": [
        {
          "name": "id",
          "type": "int256"
        }
      ],
      "name": "limpiarId",
      "outputs": [],
      "payable": false,
      "stateMutability": "nonpayable",
      "type": "function",
      "signature": "0x0209acad"
    },
    {
      "constant": false,
      "inputs": [
        {
          "name": "input",
          "type": "string"
        }
      ],
      "name": "CreateCustomEvent",
      "outputs": [],
      "payable": false,
      "stateMutability": "nonpayable",
      "type": "function",
      "signature": "0xf73361a4"
    },
    {
      "constant": false,
      "inputs": [
        {
          "name": "input",
          "type": "string"
        }
      ],
      "name": "CreateCustomEventResult",
      "outputs": [],
      "payable": false,
      "stateMutability": "nonpayable",
      "type": "function",
      "signature": "0xf1fb878b"
    }
  ],
  "bytecode": "0x608060405234801561001057600080fd5b5061102a806100206000396000f3fe6080604052600436106100a4576000357c0100000000000000000000000000000000000000000000000000000000900463ffffffff1680630209acad146100a9578063583da5af146100e45780636345d033146101b657806381eed6dd146102885780638a004e591461033c578063a2097f04146103f0578063f1fb878b146104a4578063f33e6c941461056c578063f73361a414610620578063fa12f3d8146106e8575b600080fd5b3480156100b557600080fd5b506100e2600480360360208110156100cc57600080fd5b8101908080359060200190929190505050610723565b005b3480156100f057600080fd5b506101b46004803603604081101561010757600080fd5b810190808035906020019064010000000081111561012457600080fd5b82018360208201111561013657600080fd5b8035906020019184600183028401116401000000008311171561015857600080fd5b91908080601f016020809104026020016040519081016040528093929190818152602001838380828437600081840152601f19601f820116905080830192505050505050509192919290803590602001909291905050506107d4565b005b3480156101c257600080fd5b50610286600480360360408110156101d957600080fd5b81019080803590602001906401000000008111156101f657600080fd5b82018360208201111561020857600080fd5b8035906020019184600183028401116401000000008311171561022a57600080fd5b91908080601f016020809104026020016040519081016040528093929190818152602001838380828437600081840152601f19601f82011690508083019250505050505050919291929080359060200190929190505050610802565b005b34801561029457600080fd5b506102c1600480360360208110156102ab57600080fd5b8101908080359060200190929190505050610830565b6040518080602001828103825283818151815260200191508051906020019080838360005b838110156103015780820151818401526020810190506102e6565b50505050905090810190601f16801561032e5780820380516001836020036101000a031916815260200191505b509250505060405180910390f35b34801561034857600080fd5b506103756004803603602081101561035f57600080fd5b81019080803590602001909291905050506108e7565b6040518080602001828103825283818151815260200191508051906020019080838360005b838110156103b557808201518184015260208101905061039a565b50505050905090810190601f1680156103e25780820380516001836020036101000a031916815260200191505b509250505060405180910390f35b3480156103fc57600080fd5b506104296004803603602081101561041357600080fd5b810190808035906020019092919050505061099e565b6040518080602001828103825283818151815260200191508051906020019080838360005b8381101561046957808201518184015260208101905061044e565b50505050905090810190601f1680156104965780820380516001836020036101000a031916815260200191505b509250505060405180910390f35b3480156104b057600080fd5b5061056a600480360360208110156104c757600080fd5b81019080803590602001906401000000008111156104e457600080fd5b8201836020820111156104f657600080fd5b8035906020019184600183028401116401000000008311171561051857600080fd5b91908080601f016020809104026020016040519081016040528093929190818152602001838380828437600081840152601f19601f820116905080830192505050505050509192919290505050610a55565b005b34801561057857600080fd5b506105a56004803603602081101561058f57600080fd5b8101908080359060200190929190505050610af4565b6040518080602001828103825283818151815260200191508051906020019080838360005b838110156105e55780820151818401526020810190506105ca565b50505050905090810190601f1680156106125780820380516001836020036101000a031916815260200191505b509250505060405180910390f35b34801561062c57600080fd5b506106e66004803603602081101561064357600080fd5b810190808035906020019064010000000081111561066057600080fd5b82018360208201111561067257600080fd5b8035906020019184600183028401116401000000008311171561069457600080fd5b91908080601f016020809104026020016040519081016040528093929190818152602001838380828437600081840152601f19601f820116905080830192505050505050509192919290505050610d6f565b005b3480156106f457600080fd5b506107216004803603602081101561070b57600080fd5b8101908080359060200190929190505050610e0e565b005b6020604051908101604052806000815250600080838152602001908152602001600020600001908051906020019061075c929190610ed9565b5060206040519081016040528060008152506000808381526020019081526020016000206001019080519060200190610796929190610ed9565b50602060405190810160405280600081525060008083815260200190815260200160002060020190805190602001906107d0929190610ed9565b5050565b8160008083815260200190815260200160002060000190805190602001906107fd929190610ed9565b505050565b81600080838152602001908152602001600020600101908051906020019061082b929190610ed9565b505050565b60606000808381526020019081526020016000206002018054600181600116156101000203166002900480601f0160208091040260200160405190810160405280929190818152602001828054600181600116156101000203166002900480156108db5780601f106108b0576101008083540402835291602001916108db565b820191906000526020600020905b8154815290600101906020018083116108be57829003601f168201915b50505050509050919050565b60606000808381526020019081526020016000206000018054600181600116156101000203166002900480601f0160208091040260200160405190810160405280929190818152602001828054600181600116156101000203166002900480156109925780601f1061096757610100808354040283529160200191610992565b820191906000526020600020905b81548152906001019060200180831161097557829003601f168201915b50505050509050919050565b60606000808381526020019081526020016000206001018054600181600116156101000203166002900480601f016020809104026020016040519081016040528092919081815260200182805460018160011615610100020316600290048015610a495780601f10610a1e57610100808354040283529160200191610a49565b820191906000526020600020905b815481529060010190602001808311610a2c57829003601f168201915b50505050509050919050565b7f7e1b9889c040dba8bfc707a45ae7682dc815451a3c9e7c5bac0eb5f86cc885d3816040518080602001828103825283818151815260200191508051906020019080838360005b83811015610ab7578082015181840152602081019050610a9c565b50505050905090810190601f168015610ae45780820380516001836020036101000a031916815260200191505b509250505060405180910390a150565b60606000808381526020019081526020016000206001016040518082805460018160011615610100020316600290048015610b665780601f10610b44576101008083540402835291820191610b66565b820191906000526020600020905b815481529060010190602001808311610b52575b505091505060405180910390206000808481526020019081526020016000206000016040518082805460018160011615610100020316600290048015610be35780601f10610bc1576101008083540402835291820191610be3565b820191906000526020600020905b815481529060010190602001808311610bcf575b505091505060405180910390201415610c5a576040805190810160405280600481526020017f74727565000000000000000000000000000000000000000000000000000000008152506000808481526020019081526020016000206002019080519060200190610c54929190610ed9565b50610cba565b6040805190810160405280600581526020017f66616c73650000000000000000000000000000000000000000000000000000008152506000808481526020019081526020016000206002019080519060200190610cb8929190610ed9565b505b6000808381526020019081526020016000206002018054600181600116156101000203166002900480601f016020809104026020016040519081016040528092919081815260200182805460018160011615610100020316600290048015610d635780601f10610d3857610100808354040283529160200191610d63565b820191906000526020600020905b815481529060010190602001808311610d4657829003601f168201915b50505050509050919050565b7f818d2411fb91789e92f56372e7b3507b252d906389d61065b79c41fbb3df6169816040518080602001828103825283818151815260200191508051906020019080838360005b83811015610dd1578082015181840152602081019050610db6565b50505050905090810190601f168015610dfe5780820380516001836020036101000a031916815260200191505b509250505060405180910390a150565b608060405190810160405280602060405190810160405280600081525081526020016020604051908101604052806000815250815260200160206040519081016040528060008152508152602001828152506000808381526020019081526020016000206000820151816000019080519060200190610e8e929190610f59565b506020820151816001019080519060200190610eab929190610f59565b506040820151816002019080519060200190610ec8929190610f59565b506060820151816003015590505050565b828054600181600116156101000203166002900490600052602060002090601f016020900481019282601f10610f1a57805160ff1916838001178555610f48565b82800160010185558215610f48579182015b82811115610f47578251825591602001919060010190610f2c565b5b509050610f559190610fd9565b5090565b828054600181600116156101000203166002900490600052602060002090601f016020900481019282601f10610f9a57805160ff1916838001178555610fc8565b82800160010185558215610fc8579182015b82811115610fc7578251825591602001919060010190610fac565b5b509050610fd59190610fd9565b5090565b610ffb91905b80821115610ff7576000816000905550600101610fdf565b5090565b9056fea165627a7a72305820347a14002c645ffc52063c75a4a96ef61469151711f2be3752489ba71409de660029",
  "source": "pragma solidity ^0.5.0;\n///////////////////////////////////////////////////////////////////////////////////////////////////////////////////////////////////////////////\n/**********************************************************STORE DATA AND EMIT EVENTS*********************************************************/\n\ncontract Gestion {\n\n\n\tstruct datosStruct{\n\t\tstring result;\n\t\tstring compare;\n\t\tstring boolComparation;\n\t\tint256 id;\n\t}\n\tmapping (int256 => datosStruct) mappingUsuarios;\n\n\n\n\t\n    event customEvent (string mysqlcustom);\n    // Event used to send a MySQL Query. The input is the query input and id. It allows to record the query\n\t\n\tevent customEventResult(string mysqlresult);\n\t// Event used to send a result. The input is the result and id. \n\n\tfunction inicializar (int256 identificador) public{\n\t\t\tmappingUsuarios[identificador]=datosStruct(\"\",\"\",\"\",identificador);\n\t}\n\n\t\n\n\tfunction setResult(string memory input, int256 id) public {\n\t\tmappingUsuarios[id].result=input;\n\t}\n\n\t/*\n\tFunction setResult : \n\n\t\t- input: string, int\n\n\t\t- output: none\n\n\tStores the result of the last request in the variable result.\n\tModifies the Blockchain, consumes Ether\n\n\n\t*/\n\t\n\n\tfunction getResult(int256 id) public view returns(string memory)  {\n\t\treturn mappingUsuarios[id].result;\n\t}\n\t\n\t/*\n\tFunction getResult : \n\n\t\t- input: int\n\n\t\t- output: string\n\n\tReturns the result of the last query, stored in the blockchain in the variable result.\n\tOnly gives the state of a variable, does not modify the blockchain.\n\tDoes not consume Ether\n\n\t*/\n\n\t\t\n\t\n\tfunction setCompare (string memory input, int256 id) public {\n\t\tmappingUsuarios[id].compare=input;\n\t}\n\n\t/*\n\tFunction setCompare : \n\n\t\t- input: string, int\n\n\t\t- output: none\n\n\tChanges the element to compare.The new input replaces the old one, and is stored in the Blockchain.\n\tModifies the Blockchain, consumes Ether\n\n\t*/\n\n\n\tfunction getCompare (int256 id) public view returns(string memory)  {\n\t\treturn mappingUsuarios[id].compare;\n\t}\n\t\n\n\t/*\n\tFunction getCompare : \n\n\t\t- input: int\n\n\t\t- output: string\n\n\tReturns the element to compare, stored in the blockchain.\n\tOnly gives the state of a variable, does not modify the blockchain.\n\tDoes not consume Ether\n\n\t*/\n\n\n\n\t\n\n\n\tfunction getBoolComparation (int256 id) public view returns(string memory)  {\n\t\t\treturn mappingUsuarios[id].boolComparation;\n\t}\n\t/*\n\tFunction getBoolComparation : \n\n\t\t- input: int\n\n\t\t- output: string\n\n\tReturns the result of the comparation, stored in the blockchain.\n\tOnly gives the state of a variable, does not modify the blockchain.\n\tDoes not consume Ether\n\n\t*/\n\n\n\n\tfunction compareHashes (int256 id) public  returns(string memory) {\n\t\tif(keccak256(bytes(mappingUsuarios[id].result)) == keccak256(bytes(mappingUsuarios[id].compare))){\n\t\t\tmappingUsuarios[id].boolComparation=\"true\";\n\t\t}else{\n\t\t\tmappingUsuarios[id].boolComparation=\"false\";\n\t\t}\n\t\treturn mappingUsuarios[id].boolComparation;\n\n\t}\n\n\t/*\n\tFunction compareHashes : \n\n\t\t- input: int\n\n\t\t- output: string\n\n\tReturns the result of the comparation and changes the result of it.\n\tThe new result replaces the old one, and is stored in the Blockchain.\n\tModifies the Blockchain, consumes Ether\n\n\t*/\n\n\n\n\n\n\tfunction limpiarId (int256 id) public  {\n\t\t\tmappingUsuarios[id].result=\"\";\n\t\t\tmappingUsuarios[id].compare=\"\";\t\t\t\n\t\t\tmappingUsuarios[id].boolComparation=\"\";\n\t}\n\t/*\n\tFunction limpiarId : \n\n\t\t- input: int\n\n\t\t- output: none\n\n\tClean the variables used replacing old values.\n\tModifies the Blockchain, consumes Ether\n\n\t*/\n\n\n\n\n\n\tfunction CreateCustomEvent(string memory input) public {\n\t\temit customEvent(input);\n\t}\n\n\t/*\n\tFunction CreateCustomEvent: \n\n\t\t- input: string\n\n\t\t- output: none\n\n\tEmit a mysqlevent. The input of this event is the variable input (which is also the input of the query and the id).\n\tThe event is written in a log in the blockchain when it is emitted.\n\t*/\n\n\tfunction CreateCustomEventResult(string memory input) public{\n\t\temit customEventResult(input);\n\t}\n\t/*\n\tFunction CreateCustomEventResult: \n\n\t\t- input: string\n\n\t\t- output: none\n\n\tEmit a mysqleventresult. The input of this event is the variable input (which is the response of the DDBB and the id).\n\tThe event is written in a log in the blockchain when it is emitted.\n\t*/\n}\n",
  "sourcePath": "/opt/lampp/htdocs/test_v2/BlockchainWebDB-master/WebServer/contracts/Gestion.sol",
  "compiler": {
    "name": "solc",
    "version": "0.5.0+commit.1d4f565a.Emscripten.clang"
  },
  "schemaVersion": "3.0.2",
  "updatedAt": "2019-04-05T21:47:48.503Z",
  "devdoc": {
    "methods": {}
  },
  "userdoc": {
    "methods": {},
    "notice": "********************************************************STORE DATA AND EMIT EVENTS********************************************************"
  }
}